:1000000033C0000044C0000042C0000040C00000F7
:100010003EC000003CC000003AC0000038C00000F4
:1000200036C0000034C0000032C0000030C0000004
:100030002EC000002CC000002AC0000028C0000014
:1000400026C0000024C0000022C0000020C0000024
:100050001EC000001CC000001AC0000018C0000034
:1000600016C0000014C0000011241FBECFEFD4E062
:10007000DEBFCDBF11E0A0E0B1E0E6EFFBE002C0E3
:1000800005900D92A230B107D9F7CBD4B2C5B8CF45
:10009000BF92CF92DF92D901E4E3FCE10F921F926D
:1000A000D72EC62EB82E242F1B2E0A2E09952131AD
:1000B000F9F71F900F90DF90CF90BF900895BF92F7
:1000C000CF92DF92D901E4E3FFE10F921F92D72E86
:1000D000C62EB82E242F1B2E0A2E09952131F9F792
:1000E0001F900F90DF90CF90BF900895CF93DF9334
:1000F000FA01E9012138310510F0C0E8D0E0AB0188
:10010000BC0140789E01CF0183D4CE01DF91CF9115
:1001100008952F923F924F925F926F927F928F92AB
:100120009F92AF92BF92CF92DF92EF92FF920F9386
:100130001F93CF93DF93E9012138310510F0C0E818
:10014000D0E01E013694279430E8432E55245A946B
:10015000652C752C46225722682279227A01DA0111
:1001600080E090E060E070E016C0F201EE19FF0957
:10017000EA0FFB1F259134914D915D9124173507AE
:1001800009F071E040955095422B532B4F3F5F4F44
:1001900009F061E001968215930539F7772351F153
:1001A000662339F020E030E043E0C301B201F801FA
:1001B000099553014201C12CD12C11C0F7012191A5
:1001C00031917F0141E0C501B401F8010995F2E0E8
:1001D0008F0E911CA11CB11C2FEFC21AD20AC2149F
:1001E000D30461F720E030E045E0C301B201F8013B
:1001F000099502C0C0E0D0E0CE01DF91CF911F9100
:100200000F91FF90EF90DF90CF90BF90AF909F90B5
:100210008F907F906F905F904F903F902F900895B8
:100220006BC00000AAC000008EC000008CC000009F
:100230008AC0000088C0000086C0000084C00000A2
:1002400082C0000080C000007EC000007CC00000B2
:100250007AC0000078C0000076C0000074C00000C2
:1002600072C0000070C000006EC000006CC00000D2
:100270006AC0000068C0000066C0000064C00000E2
:1002800062C0000060C00000EC2DFD2DB7B6B0FCD0
:10029000FDCF27BFE895B7B6B0FCFDCF21E1B7B6DB
:1002A000B6FCF4CF08950902120001010080320962
:1002B000040000000000000012011001FF0000080F
:1002C000C016DC050201010200010E0355005300B7
:1002D00042006100730070001C0377007700770014
:1002E0002E00660069007300630068006C002E0039
:1002F000640065000403090411241FBECFEFD4E09D
:10030000DEBFCDBF24B7D4E0CEEF39913C31399177
:1003100009F03FEF30933D0120933C0111E0A0E054
:10032000B1E0EAEEFFE302C005900D92A630B107FE
:10033000D9F721E0A6E0B1E001C01D92AC33B207CD
:10034000E1F766D160C36CCFA82FB92F80E090E0B1
:1003500041E050EA609530E009C02D9182279795E1
:10036000879510F084279527305EC8F36F5FA8F358
:100370000895EADF8D939D930895CF93CFB7CF93E0
:10038000C3954C9BE9F74C9B09C04C9B07C04C9B09
:1003900005C04C9B03C04C9B01C0A1C0DF93C09122
:1003A0001F01DD27CA5DDE4F4C9B02C0DF91EBCF02
:1003B0002F930F931F9309B12FEF04FB20F94F9355
:1003C0003F9319B14FEF012704FB21F93BE031C006
:1003D0004E7F012F19B1216028C0102F4D7F226060
:1003E000000009B129C04B7F2460012F000019B122
:1003F0002BC019B1477F28602AC04F7E09B1206108
:100400002CC04F7D19B120622FC04F7B09B12064F1
:1004100032C0422709B149934FEF0000102714FB67
:1004200020F919B11471C9F1297F91F2012704FB58
:1004300021F909B1237F89F2315058F1102714FBBB
:1004400022F919B1277E79F2012704FB23F92F7CC9
:1004500081F209B1102714FB24F92F7971F200C041
:1004600019B1012704FB25F92F7359F200C009B116
:10047000102714FB26F9223040F200C019B10127E1
:1004800004FB27F9243028F64F77206819B10000C3
:10049000F9CF11E01CBB002717C03B503195C31B9F
:1004A000D04011E01CBB0881033CE9F00B34D9F0CB
:1004B00020911D011981110F1213EDCF093641F161
:1004C0000D3211F0013E39F7009324013F914F9115
:1004D0001F910F912F91DF91CCB3C0FD51CFCF91E0
:1004E000CFBFCF91189520912401222379F3109149
:1004F0002201112311F5343012F13093220120939F
:100500001E0110911F013BE0311B30931F0117C0EA
:100510000091220101308CF40AE53091000134FD94
:1005200010C000930001C2E1D1E00FC02795A8F4EC
:100530005150A9F4220F0000F9CF4AE503C042ED63
:1005400001C0432FC4E1D0E032E01AB114615C9ADB
:100550001AB90BB120E414E15F93012756E00BB9FF
:10056000279520F4515021F4220FF9CF012756E0AE
:1005700000003B5A0BB9D0F2279528F4515029F4CA
:10058000220F0000F9CF012756E027950BB920F480
:10059000515021F4220FF9CF012756E0299133233E
:1005A0000BB921F60B7E10912301110FC651D040DB
:1005B0000BB911F010931D0111E01CBB00611AB1C1
:1005C0001B7E402F4B7E5F9100C000C00BB91AB953
:1005D0004BB97CCF31978040E9F70895FC019381B6
:1005E00084812281203339F48370E82FF0E0EE5FBC
:1005F000FE4F80810895203A09F4EFC1203C19F4A0
:100600006581F3D103C02F3F09F411EF80E0089515
:100610001AB888E08BB981E085BF82E085BF83E0AE
:10062000D9DF80913C01877F21F480913D018823AF
:1006300081F04B9B0EC0F894549A1BB81DBA1092CF
:10064000690081E085BF15BEE0911001F0911101B4
:1006500009951EEF14BE8091690082608093690045
:10066000E89A549A8CE0B6DF54987894009122016D
:10067000035007FD27C180911F01CCE0D0E0C81BCB
:10068000D109CA5DDE4F80911E018D3209F0B3C0E1
:10069000083009F015C183EC809312018AE580933C
:1006A000000110920601888180762981882399F1C2
:1006B00087E091E09093210180932001233031F471
:1006C000CE018CDF80930A0124E08BC02530F9F045
:1006D0002A30E9F0822F8450863098F48A819B81F9
:1006E00090930C0180930B01293099F08E818093B7
:1006F0000D018D81827080930E0120930F012FEFE9
:1007000069C0223011F41E7F04C0116002C021E0D4
:1007100068C020E066C08A8110921B01211106C0CA
:1007200010921C018BE191E022E04EC0253019F4BB
:10073000809323013DC02630A9F59B81913019F4A7
:1007400088E998E304C0923041F486E898E39093F6
:1007500021018093200122E121C09330F1F4811125
:1007600008C084ED98E3909321018093200124E058
:1007700015C0813041F488EB98E390932101809378
:1007800020012CE10BC0823041F48AEA98E3909377
:100790002101809320012EE001C020E080E48093BD
:1007A000060116C0283069F0293029F4809325010C
:1007B0008BE191E004C08BE191E02A3021F020E050
:1007C00003C085E291E021E0909321018093200114
:1007D0002F3F39F4888187FD2E8180E880930601C0
:1007E00007C08F81811104C08E81821708F4282FE1
:1007F0002093010165C08091060187FF61C080914F
:100800000D01801708F4082F801B80930D01DD2453
:10081000D3948111D12C80910F018730B0F07E01EB
:100820000FC0D7016D917D0180910B0190910C015A
:100830009C012F5F3F4F30930C0120930B01D5D0CB
:100840008E2D8C1B801768F338C080910E01E091CB
:100850000B01F0910C01DE0100FD0395025048F1FF
:10086000F83338F522D0F8940D901D9021E017D080
:100870002E2F2E5F2F7731F0DD2079F0882369F05D
:10088000003059F423E00BD010D025E008D00DD073
:1008900007B606FE02C021E102D03296DFCFF894FF
:1008A00027BFE89511247894089507B600FCFDCF82
:1008B0000895F0930C01E0930B01D1101092010107
:1008C000109222018091000184FF71C0809101018A
:1008D0008F3F09F46CC0082F893008F008E0801BB6
:1008E000809301018091120198E889278093120179
:1008F000002309F44BC08091060187FF29C0809135
:100900000D01801708F4082F801B80930D01D090F3
:100910000F01C3E1D1E015C0E0900B01F0900C0194
:10092000B6E0BD1518F4C70158D002C0F701849194
:1009300088832196FFEFEF1AFF0AF0920C01E092F4
:100940000B0183E191E02C2F281B201728F31CC0FA
:10095000E0912001F0912101A3E1B1E086FF09C0FF
:1009600084918D93319683E191E0800F8A13F8CFC3
:1009700007C081918D9383E191E0800F8A13F9CFB5
:10098000F0932101E0932001093058F4602F83E1B6
:1009900091E0EFDC0C5F0C3041F08FEF80930101B0
:1009A00004C08FEF809301010EE10093000184E108
:1009B00099B1947131F48150D9F7109223011092BA
:1009C0001D01103118F04B99105104C0123010F075
:1009D0004B9B125011114ACE2ECEF999FECF92BDEB
:1009E00081BDF89A992780B50895262FF999FECFF1
:1009F0001FBA92BD81BD20BD0FB6F894FA9AF99A3C
:100A00000FBE01960895F894FFCF5AFF1E9406007A
:100A1000FA01DC0102C005900D9221503040D8F758
:100A20000895AF92BF92CF92DF92EF92FF920F9311
:100A30001F93CF93DF93CDB7DEB7C058D1090FB660
:100A4000F894DEBF0FBECDBF88E10FB6F894809357
:100A50006000109260000FBEF8941982209100018E
:100A60003091010180E090E0F901E80FF91F6591F4
:100A70007491FC01F85C459154916417750719F065
:100A800081E0898305C00296803F47E0940761F7C3
:100A90008981882309F492C068E6C62E68E3D62EC1
:100AA000E12CF12C20E830E0AE014F5F5F4FC70131
:100AB000B6011CDB9C01C701B60168567A4F8F4F07
:100AC0009F4F08E410E0AE014F5F5F4F22DB80E8EC
:100AD000C80ED11CE11CF11C48E6C4164AE3D4063A
:100AE000E104F104F9F6C12C58E3D52EE12CF12CE8
:100AF000560188E3B81A40E850E06FEF70E0CE018D
:100B0000019670D040910001509101014A0D5B1D8A
:100B1000662757FD6095762F20E830E0CE010196DC
:100B200077DF0FE510E020E830E0AE014F5F5F4F68
:100B3000C701B601EEDA40E8C40ED11CE11CF11C7D
:100B4000C1148BE3D806E104F10491F640EFE42EE2
:100B500047E0F42EEA18FB0840E850E06FEF70E041
:100B6000CE0101963FD0970141E8E416F10410F060
:100B700020E830E040910001509101014A0D5B1DD9
:100B8000662757FD6095762FCE01019641DFB501AE
:100B9000785C80E090E008E410E020E830E0AE010E
:100BA0004F5F5F4FB6DA80E8A80EB11C40E8E41A48
:100BB000F10880EFA81687E0B80670F280E090E0B8
:100BC000C058DF4F0FB6F894DEBF0FBECDBFDF9128
:100BD000CF911F910F91FF90EF90DF90CF90BF903A
:100BE000AF900895DC0101C06D9341505040E0F793
:060BF0000895F894FFCF08
:020BF6002002DB
:00000001FF
