:103800006BC000009EC0000082C0000080C00000AD
:103810007EC000007CC000007AC0000078C00000BC
:1038200076C0000074C0000072C0000070C00000CC
:103830006EC000006CC000006AC0000068C00000DC
:1038400066C0000064C0000062C0000060C00000EC
:103850005EC000005CC000005AC0000058C00000FC
:1038600056C0000054C00000EC2DFD2DB7B6B0FCD2
:10387000FDCF27BFE895B7B6B0FCFDCF21E1B7B6C5
:10388000B6FCF4CF0895090212000101008032094C
:10389000040000000000000012011001FF000008F9
:1038A000C016DC050201010200010E0355005300A1
:1038B00042006100730070001C03770077007700FE
:1038C0002E00660069007300630068006C002E0023
:1038D000640065000403090411241FBECFEFD4E087
:1038E000DEBFCDBF11E0A0E0B1E0E2EFFFE302C038
:1038F00005900D92A630B107D9F711E0A6E0B1E02E
:1039000001C01D92AC33B107E1F760D170C378CF2D
:10391000A82FB92F80E090E041E050EA609530E0B8
:1039200009C02D9182279795879510F084279527B8
:10393000305EC8F36F5FA8F30895EADF8D939D931F
:103940000895CF93CFB7CF93C3954C9BE9F74C9B8A
:1039500009C04C9B07C04C9B05C04C9B03C04C9BB3
:1039600001C0A1C0DF93C0911F01DD27CA5DDE4FFA
:103970004C9B02C0DF91EBCF2F930F931F9309B1A4
:103980002FEF04FB20F94F933F9319B14FEF01271D
:1039900004FB21F93BE031C04E7F012F19B12160BA
:1039A00028C0102F4D7F2260000009B129C04B7F35
:1039B0002460012F000019B12BC019B1477F286086
:1039C0002AC04F7E09B120612CC04F7D19B1206201
:1039D0002FC04F7B09B1206432C0422709B14993FF
:1039E0004FEF0000102714FB20F919B11471C9F131
:1039F000297F91F2012704FB21F909B1237F89F284
:103A0000315058F1102714FB22F919B1277E79F2B1
:103A1000012704FB23F92F7C81F209B1102714FB45
:103A200024F92F7971F200C019B1012704FB25F99F
:103A30002F7359F200C009B1102714FB26F9223068
:103A400040F200C019B1012704FB27F9243028F601
:103A50004F77206819B10000F9CF11E01CBB002797
:103A600017C03B503195C31BD04011E01CBB0881EF
:103A7000033CE9F00B34D9F020911D011981110F9D
:103A80001213EDCF093641F10D3211F0013E39F735
:103A9000009324013F914F911F910F912F91DF913E
:103AA000CCB3C0FD51CFCF91CFBFCF91189520910E
:103AB0002401222379F310912201112311F53430CE
:103AC00012F13093220120931E0110911F013BE05F
:103AD000311B30931F0117C00091220101308CF47B
:103AE0000AE53091000134FD10C000930001C2E1ED
:103AF000D1E00FC02795A8F45150A9F4220F00007F
:103B0000F9CF4AE503C042ED01C0432FC4E1D0E044
:103B100032E01AB114615C9A1AB90BB120E414E1D5
:103B20005F93012756E00BB9279520F4515021F4FB
:103B3000220FF9CF012756E000003B5A0BB9D0F213
:103B4000279528F4515029F4220F0000F9CF0127BE
:103B500056E027950BB920F4515021F4220FF9CFEC
:103B6000012756E0299133230BB921F60B7E1091E2
:103B70002301110FC651D0400BB911F010931D0154
:103B800011E01CBB00611AB11B7E402F4B7E5F9180
:103B900000C000C00BB91AB94BB97CCFFC019381AE
:103BA00084812281203339F48370E82FF0E0EF5FC5
:103BB000FE4F80810895203A09F403C2203C21F48D
:103BC000658107D280E0089580E008955B9A14BE75
:103BD00081E085BF92E095BF2FEB37E249E02150AD
:103BE00030404040E1F700C000004B99DDC18091BA
:103BF0006900826080936900E89A549A8FE795E89B
:103C0000A9E081509040A040E1F700C00000549826
:103C1000789420912201235027FD4AC130911F0141
:103C20008CE090E0831B91098C010A5D1E4F30915E
:103C30001E013D3209F0BFC0283009F037C123EC26
:103C4000209312012AE52093000110920601D80169
:103C50004C91242F207611963C911197222381F1CB
:103C600087E091E09093210180932001333031F47B
:103C7000C80194DF80930A0124E08EC03530E1F062
:103C80003A30D1F0832F84508630C0F4F80182811D
:103C9000938190930C0180930B01393079F0268148
:103CA00020930D018581827080930E0130930F0166
:103CB00047FD6EC02FEF6CC021E06EC020E06CC0ED
:103CC000D80112962C91129710921B01332331F4D4
:103CD00010921C018BE191E022E055C0353019F4BF
:103CE0002093230144C03630E1F5FC01E85DFE4F2E
:103CF0002081875D9E4FFC018081813019F488E925
:103D000098E304C0823041F486E898E3909321015F
:103D10008093200122E121C08330F1F4222341F479
:103D200084ED98E3909321018093200124E015C055
:103D3000213041F488EB98E3909321018093200196
:103D40002CE10BC0223041F48AEA98E390932101E0
:103D5000809320012EE001C020E080E480930601E2
:103D60001BC0383069F0393029F4209325018BE1EC
:103D700091E004C08BE191E03A3021F020E003C0F3
:103D800085E291E021E0909321018093200104C01D
:103D900080E8809306010CC0D80117968C91179784
:103DA000882331F416968C911697821708F4282FE1
:103DB000209305017BC08091060187FF77C0809129
:103DC0000D01E22E821708F4E82E8E1980930D0162
:103DD000D1E08111D0E0C0E062C020910F0180915C
:103DE0000B0190910C01273068F09C012F5F3F4F31
:103DF00030930C0120930B01F80161918F01E9D000
:103E0000CF5F4DC0F8E380309F0708F04DC0CE5F14
:103E1000F894E0910B01F0910C01D8018D919D91E6
:103E20008D0121E00C0120935700E895112478942E
:103E300080910B0190910C01029690930C0180935C
:103E40000B018F779070009741F0DD2341F1CE1583
:103E500030F180910E01882311F1F894E0910B016B
:103E6000F0910C01329783E080935700E8957894A5
:103E700007B600FCFDCFF894E0910B01F0910C0126
:103E8000329785E080935700E895789407B600FC58
:103E9000FDCFF89481E180935700E8957894CE1592
:103EA00008F49BCFDD2311F010920501109222013E
:103EB0008091000184FF6CC0809105018F3F09F45F
:103EC00067C0182F893008F018E0811B8093050126
:103ED0008091120198E8892780931201112309F437
:103EE00046C08091060187FF26C080910D01811791
:103EF00008F4182F811B80930D0100E0C3E1D1E08D
:103F000017C080910F01E0900B01F0900C018730F9
:103F100018F0C70156D002C0F7018491888321961A
:103F20000894E11CF11CF0920C01E0920B010F5F70
:103F3000011739F71AC0E0912001F091210186FFA5
:103F400009C0812FA3E1B1E094919D9331968150F6
:103F5000D9F707C0812FA3E1B1E091919D938150E2
:103F6000E1F7F0932101E0932001193058F483E147
:103F700091E0612FE2DC1C5F1C3041F08FEF8093F9
:103F8000050104C08FEF809305011EE1109300012D
:103F900084E199B1947109F03CCE8150D1F710922F
:103FA000230110921D0135CEF894549A1BB81DBA06
:103FB0001092690085BF15BEE0911001F0911101CA
:103FC0000995F999FECF92BD81BDF89A992780B5E0
:103FD0000895262FF999FECF1FBA92BD81BD20BD4D
:103FE0000FB6F894FA9AF99A0FBE01960895F894CC
:023FF000FFCF01
:063FF2005A1E940600FFB8
:0400000300003800C1
:00000001FF
